:03020000020208EF
:05026100E4F50BF50CB3
:030266000202038E
:0502030012139780FEBC
:03000000020200F9
:0100030032CA
:01000B0032C2
:0100130032BA
:01001B0032B2
:0100230032AA
:01002B0032A2
:01003300329A
:01003B003292
:01004300328A
:01004B003282
:01005300327A
:01005B003272
:01006300326A
:0101000032CC
:0101040032C8
:0101080032C4
:01010C0032C0
:0101100032BC
:0101140032B8
:0101180032B4
:0101200032AC
:0101240032A8
:0101280032A4
:01012C0032A0
:01013000329C
:010134003298
:010138003294
:01013C003290
:01014000328C
:010148003284
:01014C003280
:01015000327C
:010154003278
:010158003274
:01015C003270
:01016000326C
:01017000325C
:010174003258
:010178003254
:01017C003250
:01018000324C
:010184003248
:010188003244
:01018C003240
:01019000323C
:010194003238
:010198003234
:01019C003230
:0101A000322C
:0101A8003224
:0101AC003220
:0101B000321C
:0101B4003218
:0101B8003214
:010269002272
:08026A00AA82AB837C007D0039
:0B027200C3EC9AED9B50147EB07F049B
:05027D001EBEFF011F81
:0B028200EE4F70F70CBC00E80D80E5AB
:01028D00224E
:08028E00AA82AB837C007D0015
:0B029600C3EC9AED9B50147E0A7F0021
:0502A1001EBEFF011F5D
:0B02A600EE4F70F70CBC00E80D80E587
:0102B100222A
:0E02B20075AF0790E67BE090E67CF0DAF32271
:0102C000221B
:0E02C100903200E0FAA3E0FB740F5A25E0250E
:0902CF00E02404FCE43432FD904B
:0B02D8003244ECF0A3EDF0759B467E75
:0A02E300467F328F9A8C068D078E3D
:0D02ED009E8D9DC0027A041202B2D00290D4
:0B02FA00320074012AF0E43BA3F02264
:0E030500903200E4F0A3F09032027410F090F9
:0903130032037404F090324474CA
:07031C0004F0A37432F0228B
:0A03230090325AE0FA70030203481A
:0E032D0090324AE0FBA3E0FC8B9B8C9A759EFD
:0D033B0040759DE7C0027AF01202B2D002B8
:0E03480090324AE0FBA3E0FC90324AEA2BF030
:07035600E43CA3F08A8222BF
:02035D007A0024
:03035F00BAFF00E2
:0D036200500B90E678E0FB20E0030A80F0ED
:0C036F0090E678E0FA20E204EA20E10BBE
:0B037B0090E678E04440F0758201221B
:04038600758200225A
:02038A007A00F7
:03038C00BAFF00B5
:0D038F00500B90E678E0FB20E0030A80F0C0
:0E039C0090E678E0FA30E20B90E678E044401C
:0503AA00F07582012244
:0403AF007582002231
:0203B3007A00CE
:0303B500BAFF008C
:0E03B800500F90E678E0FB20E20475820022F0
:0303C6000A80ECBE
:0403C9007582012216
:0203CD007A00B4
:0303CF00BAFF0072
:0E03D200500F90E678E0FB20E60475820022D2
:0303E0000A80ECA4
:0403E30075820122FC
:0803E700AA82C3E49AE433FA90
:0D03EF0090E678E04480F0C0021203B39065
:0E03FC00E67974A2F012035DE582D002701261
:0C040A00E50D600A90E678E04440F01236
:0204160003CD14
:0404180075820022C7
:0E041C00EA600C90000AC00212028ED002802C
:01042A00C40D
:0C042B00E50D600890E678E0FA4440F02F
:0404370075820122A7
:0C043B00AA82AB837C00E5107003F58200
:010447002292
:0C044800750D00758264C002C003C00482
:0E0454001203E7E582D004D003D00260030259
:02046200053E55
:0C04640090E679E50FF0C002C003C00470
:0E04700012035DE582D004D003D002600302C7
:02047E00053E39
:0C04800090E679E50EF0C002C003C00455
:0E048C0012035DE582D004D003D002600302AB
:02049A00053E1D
:0E049C0090E678E04440F0C002C003C00412B5
:0D04AA0003CD90E678E04480F01203B3909B
:0E04B700E67974A3F012035DE582D004D00351
:0E04C500D002707590E679E08A828B83F0C0D9
:0E04D30002C003C00412038AE582D004D003E5
:0504E100D0027059FD7E
:0C04E600C3ED9510502A90E679E08A8260
:0E04F2008B83F0A3AA82AB83C002C003C004B8
:0E050000C00512038AE582D005D004D003D0D6
:08050E0002702D0D8D0480D058
:0E05160090E678E04420F090E679E0C0041210
:0E052400038AE582D004701290E678E044402D
:0C053200F090E679E0C0041203CDD00484
:03053E008C82228A
:0C054100AA82AB837C00750D00758264FB
:0E054D00C002C003C0041203E7E582D004D050
:08055B0003D00260030205F465
:0C05630090E679E512F0C002C003C0046D
:0E056F0012035DE582D004D003D002600302C7
:02057D0005F483
:0C057F0090E679E511F0C002C003C00452
:0E058B0012035DE582D004D003D002705CFD47
:0C059900C3ED951350478A828B83E0FE6F
:0E05A500A3AA82AB8390E679EEF0903250E08C
:0D05B300FFEE2FF090324EE0FEA3E0FF902F
:0E05C000324E74012EF0E43FA3F0C002C003DF
:0E05CE00C004C00512035DE582D005D004D044
:0A05DC0003D00270130D8D0480B3EC
:0E05E60090E678E04440F0C0041203CDD0044B
:0305F4008C8222D4
:0A05F70090325AE0FA90324CE0F521
:060601000EA3E0F50F8AD4
:0C0607001090E740C00212043BAB82D010
:0E061300027C0090324CE0FDA3E0FE90324CE1
:0A062100EA2DF0EC3EA3F08B8222DC
:0B062B00AA8290324CE0F511A3E0F52C
:09063600128A1390E740C0021281
:0E063F000541D0027B0090324CE0FCA3E0FDB0
:0B064D0090324CEA2CF0EB3DA3F022B1
:0D065800AA8290E6017480F000000000907E
:0E066500E670E4F090E671F075B2FA74804A27
:0E067300F58090000AC00212026AD00253B451
:0A068100F774024AF5807A007B004E
:0E068B002080208A048B057E007F00C3EC9443
:0E069900FFED94FFEE9400EF64809480500714
:0706A7000ABA00E00B80DD40
:0706AE003080047AC88002CD
:0206B5007A6465
:0E06B700903256EAF0903252E4F0A3F0A3F035
:0806C500A3F0903251E4F02291
:0606CD00758220020658B0
:0606D3007582600206586A
:0306D9000206CD49
:0D06DC00C28043B20190E6A3E054FEF0900E
:0E06E900E6A4E054FEF090E6A5E054FEF0908A
:0E06F700E6A6E0FA54FEF00000000090E60BCC
:0E0705007403F00000000090E60174A3F00001
:0E0713000000001213A590E6187411F000000B
:0D072100000090E6197411F0000000009037
:0E072E00E61A7409F00000000090E61B740942
:0E073C00F00000000090E6247402F0000000BF
:0E074A000090E625E4F00000000090E6267422
:0E07580002F00000000090E627E4F000000030
:0E0766000090E6917480F00000000090E69193
:0E0774007480F00000000090E6957480F000A4
:0E07820000000090E6957480F00000000090EA
:0E079000E609E4F00000000090E6027498F024
:0E079E000000000090E60374FEF00000000072
:0A07AC00D280850982850A8374FF5C
:0707B600F0E4F50EF50F75EC
:0607BD0010018509828590
:0807C3000A8312043BAA828A9A
:0507CB000B750C00900D
:0907D000324674AAF08509828505
:0807D9000A83E0903247F0AA08
:0707E1000B903248EAF09092
:0807E800324974AAF00202C1BB
:0707F0003080047A1480023E
:0207F7007A0A7C
:0C07F900903256E0FBEA2BF07A007B0007
:0E0805008A048B057E007F00C3EC94FFED9407
:0E081300FFEE9400EF64809480500BD283C2FD
:08082100830ABA00DF0B80DC42
:0E082900D283C283D283C283D283C283D2839E
:0E083700C283D287D283C283D283C283D2838C
:0E084500C283D283C28375B2003080047A026F
:02085300800221
:020855007A0126
:0E085700903256E0FBEA2BF0308105D2811280
:0208650006DCAF
:06086700D28143B202221F
:0C086D0085B51475B5FF90325AE0FB9081
:0E0879003252E0FCA3E0FDA3E0FEA3E0FF7816
:0E0887000079007A00903252EB2CF0E83DA38D
:0E089500F0E93EA3F0EA3FA3F090E68BE060AE
:0E08A30022FA759B40759AE775AF07903251A7
:0508B100E0F990E67B78
:0E08B600E0F5B0D28329F9C283DAF590325111
:0208C400E9F059
:0B08C6008514B590E68BE0FABA400004
:0508D10050030207F0D6
:0108D60022FF
:01006C00286B
:01006D000191
:04006E005A54455843
:040072000A0C000074
:010076000089
:010077000187
:060078000B000000000077
:0C007E0000000000000000000000000076
:0A008A00303030303030303030308C
:0108D70022FE
:0E08D80090E683E4F07420F07410F07430F0B9
:0E08E60090E6837401F07421F07411F0743107
:0E08F400F090E6837402F07422F07404F07445
:0E09020024F090E6837416F07436F07418F04A
:040910007438F02225
:0A091400AA82E51624E050037516D0
:01091E001FB9
:0C091F0075AF078A9B85159A759E41757F
:0A092B009DE790E67C7403F07A006B
:0C093500C3EA9516501190E67BE0FB90A1
:0B094100E67CF090E67CE4F00A80E920
:0B094C00E5160425E0FA90E740F0906B
:0E095700E7417403F090E68AE4F090E68BEA44
:02096500F0227E
:0E096700903258E0FAA3E0FBC374409AE49B80
:0809750050067C407D00800467
:04097D008A048B0558
:0E09810090325AECF07D00903258EAC39CF0A0
:05098F00EB9DA3F02226
:0A09940090325BE0FABA3102804AAB
:04099E00BA32012246
:0509A200BA3902801DBE
:0509A700BA6002800AA5
:0509AC00BA6102800D9C
:0509B100BA6237800B63
:0809B600C2801213A5D28022B9
:0309BE000215031C
:0309C10002030529
:0E09C400903250E4F090324EF0A3F090E6BB7B
:0E09D200E0FB7A0090E6BAE0FC7D0090324C2B
:0809E000EC4AF0ED4BA3F022FC
:0309E8000206D92B
:0809EB0090E6A0E04401F022B7
:0C09F300C020C0E0C0F0C082C083C00281
:0E09FF00C003C004C005C006C007C000C00190
:0E0A0D00C0D075D00090E6B9E0FA90325BF0F0
:0E0A1B0090E6B57401F090E6B9E0FA24F350CD
:040A290003020DA90E
:070A2D00EA2A2A900A347343
:070A3400020A5B020B0F0236
:060A3B000DA9020B8C0264
:060A41000DA9020DA9023F
:060A47000C24020D3F0229
:060A4D000D41020D5202F2
:060A53000D57020D6802C0
:020A59000D6D21
:0A0A5B0090E6B8E0FABA8002800DC0
:050A6500BA8102801EB1
:050A6A00BA8202802F9A
:030A6F00020DA9CC
:0E0A720090E740E4F090E741F090E68AF090C3
:080A8000E68B7402F0020DA9DF
:0E0A880090E740E4F090E741F090E68AF090AD
:080A9600E68B7402F0020DA9C9
:0C0A9E0090E6BCE0FA600FBA010280197B
:050AAA00BA8002800586
:050AAF00BA812F801E3A
:0E0AB40090E6A0E0FA53020190E740EAF080DD
:010AC2003AF9
:0E0AC30090E6A1E0FA53020190E740EAF080CD
:010AD1002BF9
:0E0AD20090E6A2E0FA53020190E740EAF080BD
:010AE0001CF9
:0E0AE10090E6BCE0C31314540324A3F582E492
:0E0AEF0034E6F583E0FA53020190E740EAF0A6
:0E0AFD0090E741E4F090E68AF090E68B7402F8
:040B0B00F0020DA93E
:0A0B0F0090E6B8E0FABA0202800393
:030B1900020DA921
:090B1C0090E6BAE06003020DA9A5
:0C0B250090E6BCE0FA600FBA01028015F7
:050B3100BA80028005FE
:050B3600BA81238016C6
:0B0B3B0090E6A0E0FA54FEF0020DA9C5
:0B0B460090E6A1E0FA54FEF0020DA9B9
:0B0B510090E6A2E0FA54FEF0020DA9AD
:0E0B5C0090E6BCE0C31314540324A3FAE4345F
:0E0B6A00E6FB90E6BCE0C31314540324A3F58D
:0E0B780082E434E6F583E0FC5304FE8A828BAF
:060B860083ECF0020DA952
:0A0B8C0090E6B8E0FABA0202800316
:030B9600020DA9A4
:090B990090E6BAE06003020DA928
:0C0BA20090E6BCE0FA600FBA010280147B
:050BAE00BA8002800581
:050BB300BA812080144E
:0A0BB80090E6A0E0FA4401F080414D
:0A0BC20090E6A1E0FA4401F080374C
:0A0BCC0090E6A2E0FA4401F0802D4B
:0E0BD60090E6BCE0C31314540324A3FAE434E5
:0E0BE400E6FB90E6BCE0C31314540324A3F513
:0E0BF20082E434E6F583E0FC4304FE8A828B45
:030C000083ECF092
:0E0C030090E6BCE05480C423541FFA90E6BC77
:0E0C1100E0FB740F5B420290E683EAF0742071
:050C1F004AF0020DA9DE
:0A0C240090E6BBE0FABA0102801965
:050C2E00BA020280265D
:050C3300BA0302804D30
:060C3800BA0603020CF8ED
:060C3E00BA0703020D0AD3
:030C4400020D3569
:0A0C47007ADC7B1590E6B3EBF09029
:080C5100E6B474DCF0020DA909
:0B0C590090E680E0FA30E7127AF87BAA
:0A0C64001590E6B3EBF090E6B474CF
:050C6E00F8F0020DA9E1
:0A0C73007A367B1690E6B3EBF090A2
:080C7D00E6B47436F0020DA983
:0A0C850090E6BAE0FABA0102800F0F
:050C8F00BA0202801C06
:050C9400BA03028029F3
:050C9900BA044A803698
:060C9E007582BB7ABB7BEE
:040CA400158B157522
:060CA800160512091402FA
:020CAE000DA98E
:060CB0007582C07AC07BD2
:040CB600158B157510
:060CBA00161112091402DC
:020CC0000DA97C
:0A0CC20075828A7A8A7B008B157513
:060CCC00160A12091402D1
:020CD2000DA96A
:060CD4007582D17AD17B8C
:040CDA00158B1575EC
:060CDE00160A12091402BF
:020CE4000DA958
:0A0CE6007A747B1690E6B3EBF090F1
:080CF000E6B47474F0020DA9D2
:0A0CF8007AEE7B1590E6B3EBF09066
:080D0200E6B474EEF0020DA945
:0B0D0A0090E680E0FA30E7127A367BBA
:0A0D15001690E6B3EBF090E6B4741C
:050D1F0036F0020DA9F1
:0A0D24007AF87B1590E6B3EBF0902F
:070D2E00E6B474F8F08074D4
:0A0D350090E6A0E0FA4401F0806AA5
:020D3F008068CA
:0E0D410090E740E4F090E68AF090E68B7401B3
:030D4F00F08057DA
:050D52001208D88052D8
:0E0D570090E740E4F090E68AF090E68B74019D
:030D6500F08041DA
:050D68001208D8803CD8
:0E0D6D0090E6B8E0FABA823490E6BCE0C31318
:0B0D7B0014540325E0245DF582E434ED
:0C0D860032F583E4F0A3F090E685E090E5
:0D0D9200E740F090E684E0FA90E741F09031
:0A0D9F00E68AE4F090E68B7402F09F
:0B0DA90090E6B8E0FABA4003020EE941
:050DB400BAC00280033B
:030DB900020F1313
:0E0DBC0090E6BFE0FB7A0090E6BEE0FC7D0012
:0E0DCA00903258EC4AF0ED4BA3F012096790FE
:090DD800E6B9E0FABA2202801823
:050DE100BA2802803079
:060DE600BA3003020E9674
:050DEC00BA380280404E
:050DF100BA3A02806423
:030DF600020EDF0B
:0E0DF90090E6B5E4F090E68AF090E68B742860
:0D0E0700F090E6B3E4F090E6B4746CF002F5
:020E14000F13BA
:080E160090324A7400F0A3744D
:0C0E1E0032F090E68AE4F0120323E58233
:070E2A0090E68BF0020F13AC
:0E0E310090E6BBE0FB7A0090E6BAE0FC7D00A4
:0E0E3F0090324CEC4AF0ED4BA3F090E68AE4C2
:0D0E4D00F01205F7E58290E68BF0020F131E
:0E0E5A0090324EE0FAA3E0FB8A0490E740ECF1
:0D0E6800F08B0290E741EAF0903250E090EC
:0C0E7500E742F0750D017582001203E7E2
:0D0E8100AA8290E743EAF090E68AE4F09040
:080E8E00E68B7404F0020F135F
:060E9600759B517A517BAF
:0C0E9C00328B9A759E417A417BE78B9D5A
:0E0EA800C0027A071202B2D00253B2FD3081AE
:0D0EB6000C90E740E4F0D28143B2028009C5
:090EC30090E7407401F01206CD25
:0E0ECC0090E7487401F090E68AE4F090E68B1F
:050EDA007409F08034F2
:0A0EDF0090E6A0E0FA4401F0802A3A
:0C0EE90090E6BFE0700690E6BEE06016E8
:0E0EF50090325C7401F090E68BE4F05391EFC4
:080F030090E65D7401F0801915
:080F0B0012099490E68BE4F05A
:0E0F13005391EF90E65D7401F090E6A0E0FAD5
:030F21004480F019
:0E0F2400D0D0D001D000D007D006D005D00428
:0D0F3200D003D002D083D082D0F0D0E0D028
:020F3F0020325E
:0E0F4100C0E0C082C0835391EF90E65D740261
:080F4F00F0D083D082D0E03223
:0E0F5700C0E0C082C0835391EF90E65D740449
:080F6500F0D083D082D0E0320D
:0E0F6D00C0E0C082C0835391EF90E65D74082F
:080F7B00F0D083D082D0E032F7
:0E0F8300C0E0C082C0835391EF90E65D741011
:080F9100F0D083D082D0E032E1
:0E0F9900C0E0C082C0835391EF90E65D7420EB
:080FA700F0D083D082D0E032CB
:0E0FAF00C0E0C082C0835391EF90E65D7440B5
:080FBD00F0D083D082D0E032B5
:0C0FC500C020C0E0C0F0C082C083C002A9
:0E0FD100C003C004C005C006C007C000C001B8
:0E0FDF00C0D075D000C2E812096790325BE006
:060FED00FABA2802800F91
:050FF300BA300280335A
:050FF800BA380280156B
:050FFD00BA3A22802930
:0E10020090E68AE4F0120323E58290E68BF07C
:02101000801945
:0E10120090E68AE4F01205F7E58290E68BF096
:02102000800945
:0910220090E68AE4F090E68BF000
:0E102B005391EF90E65F7401F0D2E8D0D0D080
:0E10390001D000D007D006D005D004D003D0DF
:0C10470002D083D082D0F0D0E0D0203264
:0C105300C020C0E0C0F0C082C083C0021A
:0E105F00C003C004C005C006C007C000C00129
:0E106D00C0D075D000C2E890325CE0FA60207E
:0D107B0090325CE4F090E6BFE0FB7A00905C
:0E108800E6BEE0FC7D00903258EC4AF0ED4BE5
:05109600A3F012099413
:0C109B0012096790325BE0FABA310302E0
:0210A70010E255
:0610A900BA32030210DF61
:0610AF00BA39030210D45F
:0510B500BA6002800F8B
:0610BA00BA61030210CD33
:0610C000BA62030210D128
:0310C6000210E233
:0410C900000210E22F
:0410CD00000210E22B
:0310D10000800E8E
:0B10D40090E68BE0F58212062B8003F3
:0310DF0012086D87
:0E10E20090E68BE4F05391EF90E65F7402F01D
:0E10F000903258E0FAA3E0FB4A700890E6A0A8
:0510FE00E0FA4480F05F
:0E110300D2E8D0D0D001D000D007D006D00561
:0E111100D004D003D002D083D082D0F0D0E042
:03111F00D02032AB
:0E112200C0E0C082C0835391EF90E65F74047A
:08113000F0D083D082D0E03240
:0E113800C0E0C082C0835391EF90E65F740860
:08114600F0D083D082D0E0322A
:0E114E00C0E0C082C0835391EF90E65F741042
:08115C00F0D083D082D0E03214
:0E116400C0E0C082C0835391EF90E65F74201C
:08117200F0D083D082D0E032FE
:0E117A00C0E0C082C0835391EF90E65F7440E6
:08118800F0D083D082D0E032E8
:0E119000C0E0C082C0835391EF90E65F748090
:08119E00F0D083D082D0E032D2
:0E11A60090E680E04408F090E6007412F053EA
:0E11B4008EF8D28143B202C2AFC2E89000436F
:0E11C2007402F09000447401F090004574B87F
:0E11D000F090E668E04408F09001007402F030
:0A11DE007AF37B098B04900101EC09
:0D11E800F0900102EAF09001047402F07A28
:0A11F500417B0F8B04900105ECF024
:0C11FF00900106EAF09001087402F07AFA
:0A120B00577B0F8B04900109ECF0F3
:0C12150090010AEAF090010C7402F07ADB
:0A1221006D7B0F8B0490010DECF0C3
:0C122B0090010EEAF09001107402F07ABD
:0A123700837B0F8B04900111ECF093
:0C124100900112EAF09001147402F07A9F
:0A124D00997B0F8B04900115ECF063
:0C125700900116EAF09001187402F07A81
:0A126300AF7B0F8B04900119ECF033
:0C126D0090011AEAF09001207402F07A5F
:0A127900C57B0F8B04900121ECF0FF
:0C128300900122EAF09001247402F07A3D
:0A128F00537B108B04900125ECF056
:0C129900900126EAF09001287402F07A1F
:0A12A500227B118B04900129ECF06C
:0C12AF0090012AEAF090012C7402F07A01
:0A12BB00387B118B0490012DECF03C
:0C12C50090012EEAF09001307402F07AE3
:0A12D1004E7B118B04900131ECF00C
:0C12DB00900132EAF09001347402F07AC5
:0A12E700647B118B04900135ECF0DC
:0C12F100900136EAF09001387402F07AA7
:0A12FD007A7B118B04900139ECF0AC
:0C13070090013AEAF090013C7402F07A88
:0A131300907B118B0490013DECF07B
:0E131D0090013EEAF05391EF90E65D747FF090
:0E132B0090E65CE0FA447FF090E65F74FFF01D
:0E13390090E65E74FFF0D2E8D2AF90E6117439
:0E134700A0F00000000090E61074A0F000007E
:0D135500000090E61274A2F000000000906D
:0E136200E61374A2F00000000090E61474E29E
:0E137000F00000000090E61574E2F0000000AE
:0E137E000012030590E680E04482F09000FA31
:0B138C0012026A90E680E054F7F022A5
:071397007508001214EF12AB
:05139E0011A612030579
:0213A30080FECA
:0913A50005089032497401F09032
:0B13AE003248E4F090324774BEF0AA11
:0713B90008903246EAF01231
:0D13C00002C190E6047480F000000000906F
:0E13CD00E618E0FA54EFF00000000090E6048D
:0E13DB007402F00000000090E6497482F000F9
:0E13E90000000090E6497482F00000000090C1
:0E13F700E618E0FA4410F00000000090E6193D
:0E140500E0FA54EFF00000000090E6047404DA
:0E141300F00000000090E6497484F000000034
:0E1421000090E6497484F00000000090E61987
:0E142F00E0FA4410F00000000090E61AE0FA27
:0E143D0054F7F00000000090E6047406F00082
:0E144B0000000090E61AE0FA4408F0000000ED
:0E1459000090E61BE0FA54F7F000000000904F
:0E146700E6047408F00000000090E61BE0FAB6
:0E1475004408F00000000090E604E4F00000DF
:0D148300000090E6497482F0000000009027
:0E149000E6497482F00000000090E649748482
:0E149E00F00000000090E6497484F0000000A9
:0A14AC0000850982850A8374FFF0B1
:0614B600E4F50EF50F75D0
:0614BC0010018509828584
:0814C2000A8312043BAA828A8E
:0514CA000B750C009001
:0914CF00324674AAF085098285F9
:0814D8000A83E0903247F0AAFC
:0714E0000B903248EAF09086
:0814E700324974AAF00202C1AF
:0D14EF0075B10043B60343B10143B10222C1
:0714FC0043B60375B10122A4
:0D1503009032497402F09032487402F0906A
:0E151000E690E0903247F090E691E09032468F
:0B151E00F01202C19032497402F090FC
:0E15290032487404F090E694E0903247F0905F
:0B153700E695E0903246F01202C190F1
:0E15420032497403F09032487402F090E6AB28
:0E155000E0903247F090E691E0903246F012C3
:09155E0002C19032497403F090BF
:0E15670032487404F090E6ADE0903247F09008
:0B157500E695E0903246F01202C190B3
:0C15800032497404F09032487402F0907C
:0D158C003247E4F090E6A3E0903246F01202
:0915990002C19032497404F09083
:0E15A20032487404F0903247E4F090E6A4E082
:0715B000903246F00202C177
:0515BB005A54455800E0
:0E15C00053706964657220696E7465726661AD
:0315CE0063650052
:0A15D10028756E6B6E6F776E2900AF
:0115DB00000F
:0E15DC0012010002FFFFFF401A220001000072
:0415EA0001020301F6
:0A15EE000A060002FFFFFF400100A3
:0E15F80009023C00010104C032090400000693
:0E160600FFFFFF00070581020002000705013B
:0E1614000200020007050202000200070504A2
:0E16220002000200070586020002000705888C
:0416300002000200B2
:021634000000B4
:0E16360009023C00010104C032090400000654
:0E164400FFFFFF0007058102400000070501BF
:0E1652000240000007050202400000070504E8
:0E1660000240000007058602400000070588D2
:04166E000240000036
:02167200000076
:04167400040300006B
:02167800000070
:01167A00006F
:01167B00FF6F
:01167C00006D
:08167D00000000000000000065
:06023700E478FFF6D8FD9B
:08021500790DE94400601B7A39
:05021D00019016787845
:030222005875927A
:0A02250032E493F2A308B8000205CA
:08022F0092D9F4DAF27592FF96
:08023D007800E84400600A7932
:03024500007592AF
:0602480032E4F309D8FCCA
:08024E007858E84400600C79C7
:0B02560001903200E4F0A3D8FCD9FABC
:03020800758120DD
:0A020B001215B7E58260030202033A
:0415B7007582002217
:00000001FF
